{
  "abi": [
    {
      "inputs": [],
      "stateMutability": "nonpayable",
      "type": "constructor"
    },
    {
      "inputs": [],
      "name": "enter",
      "outputs": [],
      "stateMutability": "payable",
      "type": "function"
    },
    {
      "inputs": [],
      "name": "getPlayers",
      "outputs": [
        {
          "internalType": "address[]",
          "name": "",
          "type": "address[]"
        }
      ],
      "stateMutability": "view",
      "type": "function"
    },
    {
      "inputs": [],
      "name": "manager",
      "outputs": [
        {
          "internalType": "address",
          "name": "",
          "type": "address"
        }
      ],
      "stateMutability": "view",
      "type": "function"
    },
    {
      "inputs": [],
      "name": "pickWinner",
      "outputs": [],
      "stateMutability": "payable",
      "type": "function"
    },
    {
      "inputs": [
        {
          "internalType": "uint256",
          "name": "",
          "type": "uint256"
        }
      ],
      "name": "players",
      "outputs": [
        {
          "internalType": "address",
          "name": "",
          "type": "address"
        }
      ],
      "stateMutability": "view",
      "type": "function"
    },
    {
      "inputs": [],
      "name": "winner",
      "outputs": [
        {
          "internalType": "address",
          "name": "",
          "type": "address"
        }
      ],
      "stateMutability": "view",
      "type": "function"
    }
  ],
  "devdoc": {
    "kind": "dev",
    "methods": {},
    "version": 1
  },
  "evm": {
    "assembly": "    /* \"Lottery.sol\":72:1424  contract Lottery {\r... */\n  mstore(0x40, 0x80)\n    /* \"Lottery.sol\":190:243  constructor() {\r... */\n  callvalue\n  dup1\n  iszero\n  tag_1\n  jumpi\n  0x00\n  dup1\n  revert\ntag_1:\n  pop\n    /* \"Lottery.sol\":225:235  msg.sender */\n  caller\n    /* \"Lottery.sol\":215:222  manager */\n  0x00\n  dup1\n    /* \"Lottery.sol\":215:235  manager = msg.sender */\n  0x0100\n  exp\n  dup2\n  sload\n  dup2\n  0xffffffffffffffffffffffffffffffffffffffff\n  mul\n  not\n  and\n  swap1\n  dup4\n  0xffffffffffffffffffffffffffffffffffffffff\n  and\n  mul\n  or\n  swap1\n  sstore\n  pop\n    /* \"Lottery.sol\":72:1424  contract Lottery {\r... */\n  dataSize(sub_0)\n  dup1\n  dataOffset(sub_0)\n  0x00\n  codecopy\n  0x00\n  return\nstop\n\nsub_0: assembly {\n        /* \"Lottery.sol\":72:1424  contract Lottery {\r... */\n      mstore(0x40, 0x80)\n      jumpi(tag_1, lt(calldatasize, 0x04))\n      shr(0xe0, calldataload(0x00))\n      dup1\n      0x481c6a75\n      eq\n      tag_2\n      jumpi\n      dup1\n      0x5d495aea\n      eq\n      tag_3\n      jumpi\n      dup1\n      0x8b5b9ccc\n      eq\n      tag_4\n      jumpi\n      dup1\n      0xdfbf53ae\n      eq\n      tag_5\n      jumpi\n      dup1\n      0xe97dcb62\n      eq\n      tag_6\n      jumpi\n      dup1\n      0xf71d96cb\n      eq\n      tag_7\n      jumpi\n    tag_1:\n      0x00\n      dup1\n      revert\n        /* \"Lottery.sol\":96:118  address public manager */\n    tag_2:\n      callvalue\n      dup1\n      iszero\n      tag_8\n      jumpi\n      0x00\n      dup1\n      revert\n    tag_8:\n      pop\n      tag_9\n      tag_10\n      jump\t// in\n    tag_9:\n      mload(0x40)\n      tag_11\n      swap2\n      swap1\n      tag_12\n      jump\t// in\n    tag_11:\n      mload(0x40)\n      dup1\n      swap2\n      sub\n      swap1\n      return\n        /* \"Lottery.sol\":934:1264  function pickWinner() public payable restricted {\r... */\n    tag_3:\n      tag_13\n      tag_14\n      jump\t// in\n    tag_13:\n      stop\n        /* \"Lottery.sol\":279:373  function getPlayers() public view returns (address[] memory) {\r... */\n    tag_4:\n      callvalue\n      dup1\n      iszero\n      tag_15\n      jumpi\n      0x00\n      dup1\n      revert\n    tag_15:\n      pop\n      tag_16\n      tag_17\n      jump\t// in\n    tag_16:\n      mload(0x40)\n      tag_18\n      swap2\n      swap1\n      tag_19\n      jump\t// in\n    tag_18:\n      mload(0x40)\n      dup1\n      swap2\n      sub\n      swap1\n      return\n        /* \"Lottery.sol\":156:177  address public winner */\n    tag_5:\n      callvalue\n      dup1\n      iszero\n      tag_20\n      jumpi\n      0x00\n      dup1\n      revert\n    tag_20:\n      pop\n      tag_21\n      tag_22\n      jump\t// in\n    tag_21:\n      mload(0x40)\n      tag_23\n      swap2\n      swap1\n      tag_12\n      jump\t// in\n    tag_23:\n      mload(0x40)\n      dup1\n      swap2\n      sub\n      swap1\n      return\n        /* \"Lottery.sol\":479:595  function enter() public payable {\r... */\n    tag_6:\n      tag_24\n      tag_25\n      jump\t// in\n    tag_24:\n      stop\n        /* \"Lottery.sol\":125:149  address[] public players */\n    tag_7:\n      callvalue\n      dup1\n      iszero\n      tag_26\n      jumpi\n      0x00\n      dup1\n      revert\n    tag_26:\n      pop\n      tag_27\n      0x04\n      dup1\n      calldatasize\n      sub\n      dup2\n      add\n      swap1\n      tag_28\n      swap2\n      swap1\n      tag_29\n      jump\t// in\n    tag_28:\n      tag_30\n      jump\t// in\n    tag_27:\n      mload(0x40)\n      tag_31\n      swap2\n      swap1\n      tag_12\n      jump\t// in\n    tag_31:\n      mload(0x40)\n      dup1\n      swap2\n      sub\n      swap1\n      return\n        /* \"Lottery.sol\":96:118  address public manager */\n    tag_10:\n      0x00\n      dup1\n      sload\n      swap1\n      0x0100\n      exp\n      swap1\n      div\n      0xffffffffffffffffffffffffffffffffffffffff\n      and\n      dup2\n      jump\t// out\n        /* \"Lottery.sol\":934:1264  function pickWinner() public payable restricted {\r... */\n    tag_14:\n        /* \"Lottery.sol\":1359:1366  manager */\n      0x00\n      dup1\n      sload\n      swap1\n      0x0100\n      exp\n      swap1\n      div\n      0xffffffffffffffffffffffffffffffffffffffff\n      and\n        /* \"Lottery.sol\":1345:1366  msg.sender == manager */\n      0xffffffffffffffffffffffffffffffffffffffff\n      and\n        /* \"Lottery.sol\":1345:1355  msg.sender */\n      caller\n        /* \"Lottery.sol\":1345:1366  msg.sender == manager */\n      0xffffffffffffffffffffffffffffffffffffffff\n      and\n      eq\n        /* \"Lottery.sol\":1337:1367  require(msg.sender == manager) */\n      tag_33\n      jumpi\n      0x00\n      dup1\n      revert\n    tag_33:\n        /* \"Lottery.sol\":994:1004  uint index */\n      0x00\n        /* \"Lottery.sol\":1018:1025  players */\n      0x01\n        /* \"Lottery.sol\":1018:1032  players.length */\n      dup1\n      sload\n      swap1\n      pop\n        /* \"Lottery.sol\":1007:1015  random() */\n      tag_35\n        /* \"Lottery.sol\":1007:1013  random */\n      tag_36\n        /* \"Lottery.sol\":1007:1015  random() */\n      jump\t// in\n    tag_35:\n        /* \"Lottery.sol\":1007:1032  random() % players.length */\n      tag_37\n      swap2\n      swap1\n      tag_38\n      jump\t// in\n    tag_37:\n        /* \"Lottery.sol\":994:1032  uint index = random() % players.length */\n      swap1\n      pop\n        /* \"Lottery.sol\":1108:1115  players */\n      0x01\n        /* \"Lottery.sol\":1116:1121  index */\n      dup2\n        /* \"Lottery.sol\":1108:1122  players[index] */\n      dup2\n      sload\n      dup2\n      lt\n      tag_39\n      jumpi\n      tag_40\n      tag_41\n      jump\t// in\n    tag_40:\n    tag_39:\n      swap1\n      0x00\n      mstore\n      keccak256(0x00, 0x20)\n      add\n      0x00\n      swap1\n      sload\n      swap1\n      0x0100\n      exp\n      swap1\n      div\n      0xffffffffffffffffffffffffffffffffffffffff\n      and\n        /* \"Lottery.sol\":1099:1105  winner */\n      0x02\n      0x00\n        /* \"Lottery.sol\":1099:1122  winner = players[index] */\n      0x0100\n      exp\n      dup2\n      sload\n      dup2\n      0xffffffffffffffffffffffffffffffffffffffff\n      mul\n      not\n      and\n      swap1\n      dup4\n      0xffffffffffffffffffffffffffffffffffffffff\n      and\n      mul\n      or\n      swap1\n      sstore\n      pop\n        /* \"Lottery.sol\":1142:1149  players */\n      0x01\n        /* \"Lottery.sol\":1150:1155  index */\n      dup2\n        /* \"Lottery.sol\":1142:1156  players[index] */\n      dup2\n      sload\n      dup2\n      lt\n      tag_43\n      jumpi\n      tag_44\n      tag_41\n      jump\t// in\n    tag_44:\n    tag_43:\n      swap1\n      0x00\n      mstore\n      keccak256(0x00, 0x20)\n      add\n      0x00\n      swap1\n      sload\n      swap1\n      0x0100\n      exp\n      swap1\n      div\n      0xffffffffffffffffffffffffffffffffffffffff\n      and\n        /* \"Lottery.sol\":1134:1166  payable(players[index]).transfer */\n      0xffffffffffffffffffffffffffffffffffffffff\n      and\n        /* \"Lottery.sol\":1134:1189  payable(players[index]).transfer(address(this).balance) */\n      0x08fc\n        /* \"Lottery.sol\":1167:1188  address(this).balance */\n      selfbalance\n        /* \"Lottery.sol\":1134:1189  payable(players[index]).transfer(address(this).balance) */\n      swap1\n      dup2\n      iszero\n      mul\n      swap1\n      mload(0x40)\n      0x00\n      mload(0x40)\n      dup1\n      dup4\n      sub\n      dup2\n      dup6\n      dup9\n      dup9\n      call\n      swap4\n      pop\n      pop\n      pop\n      pop\n      iszero\n      dup1\n      iszero\n      tag_47\n      jumpi\n      returndatasize\n      0x00\n      dup1\n      returndatacopy\n      revert(0x00, returndatasize)\n    tag_47:\n      pop\n        /* \"Lottery.sol\":1225:1226  0 */\n      0x00\n        /* \"Lottery.sol\":1211:1227  new address[](0) */\n      0xffffffffffffffff\n      dup2\n      gt\n      iszero\n      tag_48\n      jumpi\n      tag_49\n      tag_50\n      jump\t// in\n    tag_49:\n    tag_48:\n      mload(0x40)\n      swap1\n      dup1\n      dup3\n      mstore\n      dup1\n      0x20\n      mul\n      0x20\n      add\n      dup3\n      add\n      0x40\n      mstore\n      dup1\n      iszero\n      tag_51\n      jumpi\n      dup2\n      0x20\n      add\n      0x20\n      dup3\n      mul\n      dup1\n      calldatasize\n      dup4\n      calldatacopy\n      dup1\n      dup3\n      add\n      swap2\n      pop\n      pop\n      swap1\n      pop\n    tag_51:\n      pop\n        /* \"Lottery.sol\":1201:1208  players */\n      0x01\n        /* \"Lottery.sol\":1201:1227  players = new address[](0) */\n      swap1\n      dup1\n      mload\n      swap1\n      0x20\n      add\n      swap1\n      tag_52\n      swap3\n      swap2\n      swap1\n      tag_53\n      jump\t// in\n    tag_52:\n      pop\n        /* \"Lottery.sol\":982:1264  {\r... */\n      pop\n        /* \"Lottery.sol\":934:1264  function pickWinner() public payable restricted {\r... */\n      jump\t// out\n        /* \"Lottery.sol\":279:373  function getPlayers() public view returns (address[] memory) {\r... */\n    tag_17:\n        /* \"Lottery.sol\":322:338  address[] memory */\n      0x60\n        /* \"Lottery.sol\":358:365  players */\n      0x01\n        /* \"Lottery.sol\":351:365  return players */\n      dup1\n      sload\n      dup1\n      0x20\n      mul\n      0x20\n      add\n      mload(0x40)\n      swap1\n      dup2\n      add\n      0x40\n      mstore\n      dup1\n      swap3\n      swap2\n      swap1\n      dup2\n      dup2\n      mstore\n      0x20\n      add\n      dup3\n      dup1\n      sload\n      dup1\n      iszero\n      tag_55\n      jumpi\n      0x20\n      mul\n      dup3\n      add\n      swap2\n      swap1\n      0x00\n      mstore\n      keccak256(0x00, 0x20)\n      swap1\n    tag_56:\n      dup2\n      0x00\n      swap1\n      sload\n      swap1\n      0x0100\n      exp\n      swap1\n      div\n      0xffffffffffffffffffffffffffffffffffffffff\n      and\n      0xffffffffffffffffffffffffffffffffffffffff\n      and\n      dup2\n      mstore\n      0x20\n      add\n      swap1\n      0x01\n      add\n      swap1\n      dup1\n      dup4\n      gt\n      tag_56\n      jumpi\n    tag_55:\n      pop\n      pop\n      pop\n      pop\n      pop\n      swap1\n      pop\n        /* \"Lottery.sol\":279:373  function getPlayers() public view returns (address[] memory) {\r... */\n      swap1\n      jump\t// out\n        /* \"Lottery.sol\":156:177  address public winner */\n    tag_22:\n      0x02\n      0x00\n      swap1\n      sload\n      swap1\n      0x0100\n      exp\n      swap1\n      div\n      0xffffffffffffffffffffffffffffffffffffffff\n      and\n      dup2\n      jump\t// out\n        /* \"Lottery.sol\":479:595  function enter() public payable {\r... */\n    tag_25:\n        /* \"Lottery.sol\":542:551  .01 ether */\n      0x2386f26fc10000\n        /* \"Lottery.sol\":530:539  msg.value */\n      callvalue\n        /* \"Lottery.sol\":530:551  msg.value > .01 ether */\n      gt\n        /* \"Lottery.sol\":522:552  require(msg.value > .01 ether) */\n      tag_58\n      jumpi\n      0x00\n      dup1\n      revert\n    tag_58:\n        /* \"Lottery.sol\":563:570  players */\n      0x01\n        /* \"Lottery.sol\":576:586  msg.sender */\n      caller\n        /* \"Lottery.sol\":563:587  players.push(msg.sender) */\n      swap1\n      dup1\n      0x01\n      dup2\n      sload\n      add\n      dup1\n      dup3\n      sstore\n      dup1\n      swap2\n      pop\n      pop\n      0x01\n      swap1\n      sub\n      swap1\n      0x00\n      mstore\n      keccak256(0x00, 0x20)\n      add\n      0x00\n      swap1\n      swap2\n      swap1\n      swap2\n      swap1\n      swap2\n      0x0100\n      exp\n      dup2\n      sload\n      dup2\n      0xffffffffffffffffffffffffffffffffffffffff\n      mul\n      not\n      and\n      swap1\n      dup4\n      0xffffffffffffffffffffffffffffffffffffffff\n      and\n      mul\n      or\n      swap1\n      sstore\n      pop\n        /* \"Lottery.sol\":479:595  function enter() public payable {\r... */\n      jump\t// out\n        /* \"Lottery.sol\":125:149  address[] public players */\n    tag_30:\n      0x01\n      dup2\n      dup2\n      sload\n      dup2\n      lt\n      tag_60\n      jumpi\n      0x00\n      dup1\n      revert\n    tag_60:\n      swap1\n      0x00\n      mstore\n      keccak256(0x00, 0x20)\n      add\n      0x00\n      swap2\n      pop\n      sload\n      swap1\n      0x0100\n      exp\n      swap1\n      div\n      0xffffffffffffffffffffffffffffffffffffffff\n      and\n      dup2\n      jump\t// out\n        /* \"Lottery.sol\":697:847  function random() private view returns (uint) {\r... */\n    tag_36:\n        /* \"Lottery.sol\":737:741  uint */\n      0x00\n        /* \"Lottery.sol\":793:809  block.difficulty */\n      difficulty\n        /* \"Lottery.sol\":811:826  block.timestamp */\n      timestamp\n        /* \"Lottery.sol\":828:835  players */\n      0x01\n        /* \"Lottery.sol\":776:836  abi.encodePacked(block.difficulty, block.timestamp, players) */\n      add(0x20, mload(0x40))\n      tag_63\n      swap4\n      swap3\n      swap2\n      swap1\n      tag_64\n      jump\t// in\n    tag_63:\n      mload(0x40)\n      0x20\n      dup2\n      dup4\n      sub\n      sub\n      dup2\n      mstore\n      swap1\n      0x40\n      mstore\n        /* \"Lottery.sol\":766:837  keccak256(abi.encodePacked(block.difficulty, block.timestamp, players)) */\n      dup1\n      mload\n      swap1\n      0x20\n      add\n      keccak256\n        /* \"Lottery.sol\":761:838  uint(keccak256(abi.encodePacked(block.difficulty, block.timestamp, players))) */\n      0x00\n      shr\n        /* \"Lottery.sol\":754:838  return uint(keccak256(abi.encodePacked(block.difficulty, block.timestamp, players))) */\n      swap1\n      pop\n        /* \"Lottery.sol\":697:847  function random() private view returns (uint) {\r... */\n      swap1\n      jump\t// out\n    tag_53:\n      dup3\n      dup1\n      sload\n      dup3\n      dup3\n      sstore\n      swap1\n      0x00\n      mstore\n      keccak256(0x00, 0x20)\n      swap1\n      dup2\n      add\n      swap3\n      dup3\n      iszero\n      tag_65\n      jumpi\n      swap2\n      0x20\n      mul\n      dup3\n      add\n    tag_66:\n      dup3\n      dup2\n      gt\n      iszero\n      tag_67\n      jumpi\n      dup3\n      mload\n      dup3\n      exp(0x0100, 0x00)\n      dup2\n      sload\n      dup2\n      0xffffffffffffffffffffffffffffffffffffffff\n      mul\n      not\n      and\n      swap1\n      dup4\n      0xffffffffffffffffffffffffffffffffffffffff\n      and\n      mul\n      or\n      swap1\n      sstore\n      pop\n      swap2\n      0x20\n      add\n      swap2\n      swap1\n      0x01\n      add\n      swap1\n      jump(tag_66)\n    tag_67:\n    tag_65:\n      pop\n      swap1\n      pop\n      tag_68\n      swap2\n      swap1\n      tag_69\n      jump\t// in\n    tag_68:\n      pop\n      swap1\n      jump\t// out\n    tag_69:\n    tag_70:\n      dup1\n      dup3\n      gt\n      iszero\n      tag_71\n      jumpi\n      0x00\n      dup2\n      0x00\n      swap1\n      sstore\n      pop\n      0x01\n      add\n      jump(tag_70)\n    tag_71:\n      pop\n      swap1\n      jump\t// out\n        /* \"#utility.yul\":7:146   */\n    tag_73:\n        /* \"#utility.yul\":53:58   */\n      0x00\n        /* \"#utility.yul\":91:97   */\n      dup2\n        /* \"#utility.yul\":78:98   */\n      calldataload\n        /* \"#utility.yul\":69:98   */\n      swap1\n      pop\n        /* \"#utility.yul\":107:140   */\n      tag_75\n        /* \"#utility.yul\":134:139   */\n      dup2\n        /* \"#utility.yul\":107:140   */\n      tag_76\n      jump\t// in\n    tag_75:\n        /* \"#utility.yul\":59:146   */\n      swap3\n      swap2\n      pop\n      pop\n      jump\t// out\n        /* \"#utility.yul\":152:481   */\n    tag_29:\n        /* \"#utility.yul\":211:217   */\n      0x00\n        /* \"#utility.yul\":260:262   */\n      0x20\n        /* \"#utility.yul\":248:257   */\n      dup3\n        /* \"#utility.yul\":239:246   */\n      dup5\n        /* \"#utility.yul\":235:258   */\n      sub\n        /* \"#utility.yul\":231:263   */\n      slt\n        /* \"#utility.yul\":228:230   */\n      iszero\n      tag_78\n      jumpi\n        /* \"#utility.yul\":266:345   */\n      tag_79\n      tag_80\n      jump\t// in\n    tag_79:\n        /* \"#utility.yul\":228:230   */\n    tag_78:\n        /* \"#utility.yul\":386:387   */\n      0x00\n        /* \"#utility.yul\":411:464   */\n      tag_81\n        /* \"#utility.yul\":456:463   */\n      dup5\n        /* \"#utility.yul\":447:453   */\n      dup3\n        /* \"#utility.yul\":436:445   */\n      dup6\n        /* \"#utility.yul\":432:454   */\n      add\n        /* \"#utility.yul\":411:464   */\n      tag_73\n      jump\t// in\n    tag_81:\n        /* \"#utility.yul\":401:464   */\n      swap2\n      pop\n        /* \"#utility.yul\":357:474   */\n      pop\n        /* \"#utility.yul\":218:481   */\n      swap3\n      swap2\n      pop\n      pop\n      jump\t// out\n        /* \"#utility.yul\":487:666   */\n    tag_82:\n        /* \"#utility.yul\":556:566   */\n      0x00\n        /* \"#utility.yul\":577:623   */\n      tag_84\n        /* \"#utility.yul\":619:622   */\n      dup4\n        /* \"#utility.yul\":611:617   */\n      dup4\n        /* \"#utility.yul\":577:623   */\n      tag_85\n      jump\t// in\n    tag_84:\n        /* \"#utility.yul\":655:659   */\n      0x20\n        /* \"#utility.yul\":650:653   */\n      dup4\n        /* \"#utility.yul\":646:660   */\n      add\n        /* \"#utility.yul\":632:660   */\n      swap1\n      pop\n        /* \"#utility.yul\":567:666   */\n      swap3\n      swap2\n      pop\n      pop\n      jump\t// out\n        /* \"#utility.yul\":672:867   */\n    tag_86:\n        /* \"#utility.yul\":749:759   */\n      0x00\n        /* \"#utility.yul\":770:824   */\n      tag_88\n        /* \"#utility.yul\":820:823   */\n      dup4\n        /* \"#utility.yul\":812:818   */\n      dup4\n        /* \"#utility.yul\":770:824   */\n      tag_89\n      jump\t// in\n    tag_88:\n        /* \"#utility.yul\":856:860   */\n      0x20\n        /* \"#utility.yul\":851:854   */\n      dup4\n        /* \"#utility.yul\":847:861   */\n      add\n        /* \"#utility.yul\":833:861   */\n      swap1\n      pop\n        /* \"#utility.yul\":760:867   */\n      swap3\n      swap2\n      pop\n      pop\n      jump\t// out\n        /* \"#utility.yul\":873:981   */\n    tag_85:\n        /* \"#utility.yul\":950:974   */\n      tag_91\n        /* \"#utility.yul\":968:973   */\n      dup2\n        /* \"#utility.yul\":950:974   */\n      tag_92\n      jump\t// in\n    tag_91:\n        /* \"#utility.yul\":945:948   */\n      dup3\n        /* \"#utility.yul\":938:975   */\n      mstore\n        /* \"#utility.yul\":928:981   */\n      pop\n      pop\n      jump\t// out\n        /* \"#utility.yul\":987:1105   */\n    tag_93:\n        /* \"#utility.yul\":1074:1098   */\n      tag_95\n        /* \"#utility.yul\":1092:1097   */\n      dup2\n        /* \"#utility.yul\":1074:1098   */\n      tag_92\n      jump\t// in\n    tag_95:\n        /* \"#utility.yul\":1069:1072   */\n      dup3\n        /* \"#utility.yul\":1062:1099   */\n      mstore\n        /* \"#utility.yul\":1052:1105   */\n      pop\n      pop\n      jump\t// out\n        /* \"#utility.yul\":1111:1227   */\n    tag_89:\n        /* \"#utility.yul\":1196:1220   */\n      tag_97\n        /* \"#utility.yul\":1214:1219   */\n      dup2\n        /* \"#utility.yul\":1196:1220   */\n      tag_92\n      jump\t// in\n    tag_97:\n        /* \"#utility.yul\":1191:1194   */\n      dup3\n        /* \"#utility.yul\":1184:1221   */\n      mstore\n        /* \"#utility.yul\":1174:1227   */\n      pop\n      pop\n      jump\t// out\n        /* \"#utility.yul\":1263:1995   */\n    tag_98:\n        /* \"#utility.yul\":1382:1385   */\n      0x00\n        /* \"#utility.yul\":1411:1465   */\n      tag_100\n        /* \"#utility.yul\":1459:1464   */\n      dup3\n        /* \"#utility.yul\":1411:1465   */\n      tag_101\n      jump\t// in\n    tag_100:\n        /* \"#utility.yul\":1481:1567   */\n      tag_102\n        /* \"#utility.yul\":1560:1566   */\n      dup2\n        /* \"#utility.yul\":1555:1558   */\n      dup6\n        /* \"#utility.yul\":1481:1567   */\n      tag_103\n      jump\t// in\n    tag_102:\n        /* \"#utility.yul\":1474:1567   */\n      swap4\n      pop\n        /* \"#utility.yul\":1591:1647   */\n      tag_104\n        /* \"#utility.yul\":1641:1646   */\n      dup4\n        /* \"#utility.yul\":1591:1647   */\n      tag_105\n      jump\t// in\n    tag_104:\n        /* \"#utility.yul\":1670:1677   */\n      dup1\n        /* \"#utility.yul\":1701:1702   */\n      0x00\n        /* \"#utility.yul\":1686:1970   */\n    tag_106:\n        /* \"#utility.yul\":1711:1717   */\n      dup4\n        /* \"#utility.yul\":1708:1709   */\n      dup2\n        /* \"#utility.yul\":1705:1718   */\n      lt\n        /* \"#utility.yul\":1686:1970   */\n      iszero\n      tag_108\n      jumpi\n        /* \"#utility.yul\":1787:1793   */\n      dup2\n        /* \"#utility.yul\":1781:1794   */\n      mload\n        /* \"#utility.yul\":1814:1877   */\n      tag_109\n        /* \"#utility.yul\":1873:1876   */\n      dup9\n        /* \"#utility.yul\":1858:1871   */\n      dup3\n        /* \"#utility.yul\":1814:1877   */\n      tag_82\n      jump\t// in\n    tag_109:\n        /* \"#utility.yul\":1807:1877   */\n      swap8\n      pop\n        /* \"#utility.yul\":1900:1960   */\n      tag_110\n        /* \"#utility.yul\":1953:1959   */\n      dup4\n        /* \"#utility.yul\":1900:1960   */\n      tag_111\n      jump\t// in\n    tag_110:\n        /* \"#utility.yul\":1890:1960   */\n      swap3\n      pop\n        /* \"#utility.yul\":1746:1970   */\n      pop\n        /* \"#utility.yul\":1733:1734   */\n      0x01\n        /* \"#utility.yul\":1730:1731   */\n      dup2\n        /* \"#utility.yul\":1726:1735   */\n      add\n        /* \"#utility.yul\":1721:1735   */\n      swap1\n      pop\n        /* \"#utility.yul\":1686:1970   */\n      jump(tag_106)\n    tag_108:\n        /* \"#utility.yul\":1690:1704   */\n      pop\n        /* \"#utility.yul\":1986:1989   */\n      dup6\n        /* \"#utility.yul\":1979:1989   */\n      swap4\n      pop\n        /* \"#utility.yul\":1387:1995   */\n      pop\n      pop\n      pop\n      swap3\n      swap2\n      pop\n      pop\n      jump\t// out\n        /* \"#utility.yul\":2031:2826   */\n    tag_112:\n        /* \"#utility.yul\":2165:2168   */\n      0x00\n        /* \"#utility.yul\":2194:2245   */\n      tag_114\n        /* \"#utility.yul\":2239:2244   */\n      dup3\n        /* \"#utility.yul\":2194:2245   */\n      tag_115\n      jump\t// in\n    tag_114:\n        /* \"#utility.yul\":2261:2365   */\n      tag_116\n        /* \"#utility.yul\":2358:2364   */\n      dup2\n        /* \"#utility.yul\":2353:2356   */\n      dup6\n        /* \"#utility.yul\":2261:2365   */\n      tag_117\n      jump\t// in\n    tag_116:\n        /* \"#utility.yul\":2254:2365   */\n      swap4\n      pop\n        /* \"#utility.yul\":2389:2442   */\n      tag_118\n        /* \"#utility.yul\":2436:2441   */\n      dup4\n        /* \"#utility.yul\":2389:2442   */\n      tag_119\n      jump\t// in\n    tag_118:\n        /* \"#utility.yul\":2465:2472   */\n      dup1\n        /* \"#utility.yul\":2496:2497   */\n      0x00\n        /* \"#utility.yul\":2481:2801   */\n    tag_120:\n        /* \"#utility.yul\":2506:2512   */\n      dup4\n        /* \"#utility.yul\":2503:2504   */\n      dup2\n        /* \"#utility.yul\":2500:2513   */\n      lt\n        /* \"#utility.yul\":2481:2801   */\n      iszero\n      tag_122\n      jumpi\n        /* \"#utility.yul\":2576:2620   */\n      tag_123\n        /* \"#utility.yul\":2613:2619   */\n      dup3\n        /* \"#utility.yul\":2576:2620   */\n      tag_124\n      jump\t// in\n    tag_123:\n        /* \"#utility.yul\":2640:2711   */\n      tag_125\n        /* \"#utility.yul\":2707:2710   */\n      dup9\n        /* \"#utility.yul\":2692:2705   */\n      dup3\n        /* \"#utility.yul\":2640:2711   */\n      tag_86\n      jump\t// in\n    tag_125:\n        /* \"#utility.yul\":2633:2711   */\n      swap8\n      pop\n        /* \"#utility.yul\":2734:2791   */\n      tag_126\n        /* \"#utility.yul\":2784:2790   */\n      dup4\n        /* \"#utility.yul\":2734:2791   */\n      tag_127\n      jump\t// in\n    tag_126:\n        /* \"#utility.yul\":2724:2791   */\n      swap3\n      pop\n        /* \"#utility.yul\":2541:2801   */\n      pop\n        /* \"#utility.yul\":2528:2529   */\n      0x01\n        /* \"#utility.yul\":2525:2526   */\n      dup2\n        /* \"#utility.yul\":2521:2530   */\n      add\n        /* \"#utility.yul\":2516:2530   */\n      swap1\n      pop\n        /* \"#utility.yul\":2481:2801   */\n      jump(tag_120)\n    tag_122:\n        /* \"#utility.yul\":2485:2499   */\n      pop\n        /* \"#utility.yul\":2817:2820   */\n      dup6\n        /* \"#utility.yul\":2810:2820   */\n      swap4\n      pop\n        /* \"#utility.yul\":2170:2826   */\n      pop\n      pop\n      pop\n      swap3\n      swap2\n      pop\n      pop\n      jump\t// out\n        /* \"#utility.yul\":2832:2989   */\n    tag_128:\n        /* \"#utility.yul\":2937:2982   */\n      tag_130\n        /* \"#utility.yul\":2957:2981   */\n      tag_131\n        /* \"#utility.yul\":2975:2980   */\n      dup3\n        /* \"#utility.yul\":2957:2981   */\n      tag_132\n      jump\t// in\n    tag_131:\n        /* \"#utility.yul\":2937:2982   */\n      tag_133\n      jump\t// in\n    tag_130:\n        /* \"#utility.yul\":2932:2935   */\n      dup3\n        /* \"#utility.yul\":2925:2983   */\n      mstore\n        /* \"#utility.yul\":2915:2989   */\n      pop\n      pop\n      jump\t// out\n        /* \"#utility.yul\":2995:3606   */\n    tag_64:\n        /* \"#utility.yul\":3210:3213   */\n      0x00\n        /* \"#utility.yul\":3225:3300   */\n      tag_135\n        /* \"#utility.yul\":3296:3299   */\n      dup3\n        /* \"#utility.yul\":3287:3293   */\n      dup7\n        /* \"#utility.yul\":3225:3300   */\n      tag_128\n      jump\t// in\n    tag_135:\n        /* \"#utility.yul\":3325:3327   */\n      0x20\n        /* \"#utility.yul\":3320:3323   */\n      dup3\n        /* \"#utility.yul\":3316:3328   */\n      add\n        /* \"#utility.yul\":3309:3328   */\n      swap2\n      pop\n        /* \"#utility.yul\":3338:3413   */\n      tag_136\n        /* \"#utility.yul\":3409:3412   */\n      dup3\n        /* \"#utility.yul\":3400:3406   */\n      dup6\n        /* \"#utility.yul\":3338:3413   */\n      tag_128\n      jump\t// in\n    tag_136:\n        /* \"#utility.yul\":3438:3440   */\n      0x20\n        /* \"#utility.yul\":3433:3436   */\n      dup3\n        /* \"#utility.yul\":3429:3441   */\n      add\n        /* \"#utility.yul\":3422:3441   */\n      swap2\n      pop\n        /* \"#utility.yul\":3458:3580   */\n      tag_137\n        /* \"#utility.yul\":3576:3579   */\n      dup3\n        /* \"#utility.yul\":3567:3573   */\n      dup5\n        /* \"#utility.yul\":3458:3580   */\n      tag_112\n      jump\t// in\n    tag_137:\n        /* \"#utility.yul\":3451:3580   */\n      swap2\n      pop\n        /* \"#utility.yul\":3597:3600   */\n      dup2\n        /* \"#utility.yul\":3590:3600   */\n      swap1\n      pop\n        /* \"#utility.yul\":3214:3606   */\n      swap5\n      swap4\n      pop\n      pop\n      pop\n      pop\n      jump\t// out\n        /* \"#utility.yul\":3612:3834   */\n    tag_12:\n        /* \"#utility.yul\":3705:3709   */\n      0x00\n        /* \"#utility.yul\":3743:3745   */\n      0x20\n        /* \"#utility.yul\":3732:3741   */\n      dup3\n        /* \"#utility.yul\":3728:3746   */\n      add\n        /* \"#utility.yul\":3720:3746   */\n      swap1\n      pop\n        /* \"#utility.yul\":3756:3827   */\n      tag_139\n        /* \"#utility.yul\":3824:3825   */\n      0x00\n        /* \"#utility.yul\":3813:3822   */\n      dup4\n        /* \"#utility.yul\":3809:3826   */\n      add\n        /* \"#utility.yul\":3800:3806   */\n      dup5\n        /* \"#utility.yul\":3756:3827   */\n      tag_93\n      jump\t// in\n    tag_139:\n        /* \"#utility.yul\":3710:3834   */\n      swap3\n      swap2\n      pop\n      pop\n      jump\t// out\n        /* \"#utility.yul\":3840:4213   */\n    tag_19:\n        /* \"#utility.yul\":3983:3987   */\n      0x00\n        /* \"#utility.yul\":4021:4023   */\n      0x20\n        /* \"#utility.yul\":4010:4019   */\n      dup3\n        /* \"#utility.yul\":4006:4024   */\n      add\n        /* \"#utility.yul\":3998:4024   */\n      swap1\n      pop\n        /* \"#utility.yul\":4070:4079   */\n      dup2\n        /* \"#utility.yul\":4064:4068   */\n      dup2\n        /* \"#utility.yul\":4060:4080   */\n      sub\n        /* \"#utility.yul\":4056:4057   */\n      0x00\n        /* \"#utility.yul\":4045:4054   */\n      dup4\n        /* \"#utility.yul\":4041:4058   */\n      add\n        /* \"#utility.yul\":4034:4081   */\n      mstore\n        /* \"#utility.yul\":4098:4206   */\n      tag_141\n        /* \"#utility.yul\":4201:4205   */\n      dup2\n        /* \"#utility.yul\":4192:4198   */\n      dup5\n        /* \"#utility.yul\":4098:4206   */\n      tag_98\n      jump\t// in\n    tag_141:\n        /* \"#utility.yul\":4090:4206   */\n      swap1\n      pop\n        /* \"#utility.yul\":3988:4213   */\n      swap3\n      swap2\n      pop\n      pop\n      jump\t// out\n        /* \"#utility.yul\":4300:4432   */\n    tag_105:\n        /* \"#utility.yul\":4367:4371   */\n      0x00\n        /* \"#utility.yul\":4390:4393   */\n      dup2\n        /* \"#utility.yul\":4382:4393   */\n      swap1\n      pop\n        /* \"#utility.yul\":4420:4424   */\n      0x20\n        /* \"#utility.yul\":4415:4418   */\n      dup3\n        /* \"#utility.yul\":4411:4425   */\n      add\n        /* \"#utility.yul\":4403:4425   */\n      swap1\n      pop\n        /* \"#utility.yul\":4372:4432   */\n      swap2\n      swap1\n      pop\n      jump\t// out\n        /* \"#utility.yul\":4438:4594   */\n    tag_119:\n        /* \"#utility.yul\":4502:4506   */\n      0x00\n        /* \"#utility.yul\":4525:4528   */\n      dup2\n        /* \"#utility.yul\":4517:4528   */\n      swap1\n      pop\n        /* \"#utility.yul\":4548:4551   */\n      dup2\n        /* \"#utility.yul\":4545:4546   */\n      0x00\n        /* \"#utility.yul\":4538:4552   */\n      mstore\n        /* \"#utility.yul\":4582:4586   */\n      0x20\n        /* \"#utility.yul\":4579:4580   */\n      0x00\n        /* \"#utility.yul\":4569:4587   */\n      keccak256\n        /* \"#utility.yul\":4561:4587   */\n      swap1\n      pop\n        /* \"#utility.yul\":4507:4594   */\n      swap2\n      swap1\n      pop\n      jump\t// out\n        /* \"#utility.yul\":4600:4714   */\n    tag_101:\n        /* \"#utility.yul\":4667:4673   */\n      0x00\n        /* \"#utility.yul\":4701:4706   */\n      dup2\n        /* \"#utility.yul\":4695:4707   */\n      mload\n        /* \"#utility.yul\":4685:4707   */\n      swap1\n      pop\n        /* \"#utility.yul\":4674:4714   */\n      swap2\n      swap1\n      pop\n      jump\t// out\n        /* \"#utility.yul\":4720:4831   */\n    tag_115:\n        /* \"#utility.yul\":4784:4790   */\n      0x00\n        /* \"#utility.yul\":4818:4823   */\n      dup2\n        /* \"#utility.yul\":4812:4824   */\n      sload\n        /* \"#utility.yul\":4802:4824   */\n      swap1\n      pop\n        /* \"#utility.yul\":4791:4831   */\n      swap2\n      swap1\n      pop\n      jump\t// out\n        /* \"#utility.yul\":4837:4950   */\n    tag_111:\n        /* \"#utility.yul\":4907:4911   */\n      0x00\n        /* \"#utility.yul\":4939:4943   */\n      0x20\n        /* \"#utility.yul\":4934:4937   */\n      dup3\n        /* \"#utility.yul\":4930:4944   */\n      add\n        /* \"#utility.yul\":4922:4944   */\n      swap1\n      pop\n        /* \"#utility.yul\":4912:4950   */\n      swap2\n      swap1\n      pop\n      jump\t// out\n        /* \"#utility.yul\":4956:5066   */\n    tag_127:\n        /* \"#utility.yul\":5023:5027   */\n      0x00\n        /* \"#utility.yul\":5055:5059   */\n      0x01\n        /* \"#utility.yul\":5050:5053   */\n      dup3\n        /* \"#utility.yul\":5046:5060   */\n      add\n        /* \"#utility.yul\":5038:5060   */\n      swap1\n      pop\n        /* \"#utility.yul\":5028:5066   */\n      swap2\n      swap1\n      pop\n      jump\t// out\n        /* \"#utility.yul\":5072:5256   */\n    tag_103:\n        /* \"#utility.yul\":5171:5182   */\n      0x00\n        /* \"#utility.yul\":5205:5211   */\n      dup3\n        /* \"#utility.yul\":5200:5203   */\n      dup3\n        /* \"#utility.yul\":5193:5212   */\n      mstore\n        /* \"#utility.yul\":5245:5249   */\n      0x20\n        /* \"#utility.yul\":5240:5243   */\n      dup3\n        /* \"#utility.yul\":5236:5250   */\n      add\n        /* \"#utility.yul\":5221:5250   */\n      swap1\n      pop\n        /* \"#utility.yul\":5183:5256   */\n      swap3\n      swap2\n      pop\n      pop\n      jump\t// out\n        /* \"#utility.yul\":5262:5425   */\n    tag_117:\n        /* \"#utility.yul\":5379:5390   */\n      0x00\n        /* \"#utility.yul\":5416:5419   */\n      dup2\n        /* \"#utility.yul\":5401:5419   */\n      swap1\n      pop\n        /* \"#utility.yul\":5391:5425   */\n      swap3\n      swap2\n      pop\n      pop\n      jump\t// out\n        /* \"#utility.yul\":5431:5570   */\n    tag_152:\n        /* \"#utility.yul\":5481:5488   */\n      0x00\n        /* \"#utility.yul\":5521:5563   */\n      0xffffffffffffffffffffffffffffffffffffffff\n        /* \"#utility.yul\":5514:5519   */\n      dup3\n        /* \"#utility.yul\":5510:5564   */\n      and\n        /* \"#utility.yul\":5499:5564   */\n      swap1\n      pop\n        /* \"#utility.yul\":5489:5570   */\n      swap2\n      swap1\n      pop\n      jump\t// out\n        /* \"#utility.yul\":5576:5672   */\n    tag_92:\n        /* \"#utility.yul\":5613:5620   */\n      0x00\n        /* \"#utility.yul\":5642:5666   */\n      tag_155\n        /* \"#utility.yul\":5660:5665   */\n      dup3\n        /* \"#utility.yul\":5642:5666   */\n      tag_156\n      jump\t// in\n    tag_155:\n        /* \"#utility.yul\":5631:5666   */\n      swap1\n      pop\n        /* \"#utility.yul\":5621:5672   */\n      swap2\n      swap1\n      pop\n      jump\t// out\n        /* \"#utility.yul\":5678:5804   */\n    tag_156:\n        /* \"#utility.yul\":5715:5722   */\n      0x00\n        /* \"#utility.yul\":5755:5797   */\n      0xffffffffffffffffffffffffffffffffffffffff\n        /* \"#utility.yul\":5748:5753   */\n      dup3\n        /* \"#utility.yul\":5744:5798   */\n      and\n        /* \"#utility.yul\":5733:5798   */\n      swap1\n      pop\n        /* \"#utility.yul\":5723:5804   */\n      swap2\n      swap1\n      pop\n      jump\t// out\n        /* \"#utility.yul\":5810:5887   */\n    tag_132:\n        /* \"#utility.yul\":5847:5854   */\n      0x00\n        /* \"#utility.yul\":5876:5881   */\n      dup2\n        /* \"#utility.yul\":5865:5881   */\n      swap1\n      pop\n        /* \"#utility.yul\":5855:5887   */\n      swap2\n      swap1\n      pop\n      jump\t// out\n        /* \"#utility.yul\":5893:6059   */\n    tag_159:\n        /* \"#utility.yul\":5962:5967   */\n      0x00\n        /* \"#utility.yul\":5987:6053   */\n      tag_161\n        /* \"#utility.yul\":6018:6052   */\n      tag_162\n        /* \"#utility.yul\":6041:6051   */\n      dup4\n        /* \"#utility.yul\":6018:6052   */\n      tag_163\n      jump\t// in\n    tag_162:\n        /* \"#utility.yul\":5987:6053   */\n      tag_152\n      jump\t// in\n    tag_161:\n        /* \"#utility.yul\":5978:6053   */\n      swap1\n      pop\n        /* \"#utility.yul\":5968:6059   */\n      swap2\n      swap1\n      pop\n      jump\t// out\n        /* \"#utility.yul\":6065:6144   */\n    tag_133:\n        /* \"#utility.yul\":6104:6111   */\n      0x00\n        /* \"#utility.yul\":6133:6138   */\n      dup2\n        /* \"#utility.yul\":6122:6138   */\n      swap1\n      pop\n        /* \"#utility.yul\":6112:6144   */\n      swap2\n      swap1\n      pop\n      jump\t// out\n        /* \"#utility.yul\":6150:6326   */\n    tag_38:\n        /* \"#utility.yul\":6182:6183   */\n      0x00\n        /* \"#utility.yul\":6199:6219   */\n      tag_166\n        /* \"#utility.yul\":6217:6218   */\n      dup3\n        /* \"#utility.yul\":6199:6219   */\n      tag_132\n      jump\t// in\n    tag_166:\n        /* \"#utility.yul\":6194:6219   */\n      swap2\n      pop\n        /* \"#utility.yul\":6233:6253   */\n      tag_167\n        /* \"#utility.yul\":6251:6252   */\n      dup4\n        /* \"#utility.yul\":6233:6253   */\n      tag_132\n      jump\t// in\n    tag_167:\n        /* \"#utility.yul\":6228:6253   */\n      swap3\n      pop\n        /* \"#utility.yul\":6272:6273   */\n      dup3\n        /* \"#utility.yul\":6262:6264   */\n      tag_168\n      jumpi\n        /* \"#utility.yul\":6277:6295   */\n      tag_169\n      tag_170\n      jump\t// in\n    tag_169:\n        /* \"#utility.yul\":6262:6264   */\n    tag_168:\n        /* \"#utility.yul\":6318:6319   */\n      dup3\n        /* \"#utility.yul\":6315:6316   */\n      dup3\n        /* \"#utility.yul\":6311:6320   */\n      mod\n        /* \"#utility.yul\":6306:6320   */\n      swap1\n      pop\n        /* \"#utility.yul\":6184:6326   */\n      swap3\n      swap2\n      pop\n      pop\n      jump\t// out\n        /* \"#utility.yul\":6332:6512   */\n    tag_170:\n        /* \"#utility.yul\":6380:6457   */\n      0x4e487b7100000000000000000000000000000000000000000000000000000000\n        /* \"#utility.yul\":6377:6378   */\n      0x00\n        /* \"#utility.yul\":6370:6458   */\n      mstore\n        /* \"#utility.yul\":6477:6481   */\n      0x12\n        /* \"#utility.yul\":6474:6475   */\n      0x04\n        /* \"#utility.yul\":6467:6482   */\n      mstore\n        /* \"#utility.yul\":6501:6505   */\n      0x24\n        /* \"#utility.yul\":6498:6499   */\n      0x00\n        /* \"#utility.yul\":6491:6506   */\n      revert\n        /* \"#utility.yul\":6518:6698   */\n    tag_41:\n        /* \"#utility.yul\":6566:6643   */\n      0x4e487b7100000000000000000000000000000000000000000000000000000000\n        /* \"#utility.yul\":6563:6564   */\n      0x00\n        /* \"#utility.yul\":6556:6644   */\n      mstore\n        /* \"#utility.yul\":6663:6667   */\n      0x32\n        /* \"#utility.yul\":6660:6661   */\n      0x04\n        /* \"#utility.yul\":6653:6668   */\n      mstore\n        /* \"#utility.yul\":6687:6691   */\n      0x24\n        /* \"#utility.yul\":6684:6685   */\n      0x00\n        /* \"#utility.yul\":6677:6692   */\n      revert\n        /* \"#utility.yul\":6704:6884   */\n    tag_50:\n        /* \"#utility.yul\":6752:6829   */\n      0x4e487b7100000000000000000000000000000000000000000000000000000000\n        /* \"#utility.yul\":6749:6750   */\n      0x00\n        /* \"#utility.yul\":6742:6830   */\n      mstore\n        /* \"#utility.yul\":6849:6853   */\n      0x41\n        /* \"#utility.yul\":6846:6847   */\n      0x04\n        /* \"#utility.yul\":6839:6854   */\n      mstore\n        /* \"#utility.yul\":6873:6877   */\n      0x24\n        /* \"#utility.yul\":6870:6871   */\n      0x00\n        /* \"#utility.yul\":6863:6878   */\n      revert\n        /* \"#utility.yul\":6890:7034   */\n    tag_124:\n        /* \"#utility.yul\":6945:6950   */\n      0x00\n        /* \"#utility.yul\":6970:7027   */\n      tag_175\n        /* \"#utility.yul\":7021:7025   */\n      dup3\n        /* \"#utility.yul\":7015:7026   */\n      sload\n        /* \"#utility.yul\":6970:7027   */\n      tag_159\n      jump\t// in\n    tag_175:\n        /* \"#utility.yul\":6961:7027   */\n      swap1\n      pop\n        /* \"#utility.yul\":6951:7034   */\n      swap2\n      swap1\n      pop\n      jump\t// out\n        /* \"#utility.yul\":7163:7280   */\n    tag_80:\n        /* \"#utility.yul\":7272:7273   */\n      0x00\n        /* \"#utility.yul\":7269:7270   */\n      dup1\n        /* \"#utility.yul\":7262:7274   */\n      revert\n        /* \"#utility.yul\":7286:7388   */\n    tag_163:\n        /* \"#utility.yul\":7328:7336   */\n      0x00\n        /* \"#utility.yul\":7375:7380   */\n      dup2\n        /* \"#utility.yul\":7372:7373   */\n      0x00\n        /* \"#utility.yul\":7368:7381   */\n      shr\n        /* \"#utility.yul\":7347:7381   */\n      swap1\n      pop\n        /* \"#utility.yul\":7337:7388   */\n      swap2\n      swap1\n      pop\n      jump\t// out\n        /* \"#utility.yul\":7394:7516   */\n    tag_76:\n        /* \"#utility.yul\":7467:7491   */\n      tag_181\n        /* \"#utility.yul\":7485:7490   */\n      dup2\n        /* \"#utility.yul\":7467:7491   */\n      tag_132\n      jump\t// in\n    tag_181:\n        /* \"#utility.yul\":7460:7465   */\n      dup2\n        /* \"#utility.yul\":7457:7492   */\n      eq\n        /* \"#utility.yul\":7447:7449   */\n      tag_182\n      jumpi\n        /* \"#utility.yul\":7506:7507   */\n      0x00\n        /* \"#utility.yul\":7503:7504   */\n      dup1\n        /* \"#utility.yul\":7496:7508   */\n      revert\n        /* \"#utility.yul\":7447:7449   */\n    tag_182:\n        /* \"#utility.yul\":7437:7516   */\n      pop\n      jump\t// out\n\n    auxdata: 0xa2646970667358221220d2c2d834e4289836431bd29f0a5a88848df51ffe341b6dff64deb67caa40951664736f6c63430008060033\n}\n",
    "bytecode": {
      "linkReferences": {},
      "object": "608060405234801561001057600080fd5b50336000806101000a81548173ffffffffffffffffffffffffffffffffffffffff021916908373ffffffffffffffffffffffffffffffffffffffff160217905550610983806100606000396000f3fe6080604052600436106100555760003560e01c8063481c6a751461005a5780635d495aea146100855780638b5b9ccc1461008f578063dfbf53ae146100ba578063e97dcb62146100e5578063f71d96cb146100ef575b600080fd5b34801561006657600080fd5b5061006f61012c565b60405161007c9190610725565b60405180910390f35b61008d610150565b005b34801561009b57600080fd5b506100a461032b565b6040516100b19190610740565b60405180910390f35b3480156100c657600080fd5b506100cf6103b9565b6040516100dc9190610725565b60405180910390f35b6100ed6103df565b005b3480156100fb57600080fd5b5061011660048036038101906101119190610588565b610457565b6040516101239190610725565b60405180910390f35b60008054906101000a900473ffffffffffffffffffffffffffffffffffffffff1681565b60008054906101000a900473ffffffffffffffffffffffffffffffffffffffff1673ffffffffffffffffffffffffffffffffffffffff163373ffffffffffffffffffffffffffffffffffffffff16146101a857600080fd5b60006001805490506101b8610496565b6101c29190610853565b9050600181815481106101d8576101d76108b3565b5b9060005260206000200160009054906101000a900473ffffffffffffffffffffffffffffffffffffffff16600260006101000a81548173ffffffffffffffffffffffffffffffffffffffff021916908373ffffffffffffffffffffffffffffffffffffffff16021790555060018181548110610257576102566108b3565b5b9060005260206000200160009054906101000a900473ffffffffffffffffffffffffffffffffffffffff1673ffffffffffffffffffffffffffffffffffffffff166108fc479081150290604051600060405180830381858888f193505050501580156102c7573d6000803e3d6000fd5b50600067ffffffffffffffff8111156102e3576102e26108e2565b5b6040519080825280602002602001820160405280156103115781602001602082028036833780820191505090505b50600190805190602001906103279291906104cc565b5050565b606060018054806020026020016040519081016040528092919081815260200182805480156103af57602002820191906000526020600020905b8160009054906101000a900473ffffffffffffffffffffffffffffffffffffffff1673ffffffffffffffffffffffffffffffffffffffff1681526020019060010190808311610365575b5050505050905090565b600260009054906101000a900473ffffffffffffffffffffffffffffffffffffffff1681565b662386f26fc1000034116103f257600080fd5b6001339080600181540180825580915050600190039060005260206000200160009091909190916101000a81548173ffffffffffffffffffffffffffffffffffffffff021916908373ffffffffffffffffffffffffffffffffffffffff160217905550565b6001818154811061046757600080fd5b906000526020600020016000915054906101000a900473ffffffffffffffffffffffffffffffffffffffff1681565b6000444260016040516020016104ae939291906106ec565b6040516020818303038152906040528051906020012060001c905090565b828054828255906000526020600020908101928215610545579160200282015b828111156105445782518260006101000a81548173ffffffffffffffffffffffffffffffffffffffff021916908373ffffffffffffffffffffffffffffffffffffffff160217905550916020019190600101906104ec565b5b5090506105529190610556565b5090565b5b8082111561056f576000816000905550600101610557565b5090565b60008135905061058281610936565b92915050565b60006020828403121561059e5761059d610924565b5b60006105ac84828501610573565b91505092915050565b60006105c183836105e5565b60208301905092915050565b60006105d98383610603565b60208301905092915050565b6105ee816107f3565b82525050565b6105fd816107f3565b82525050565b61060c816107f3565b82525050565b600061061d82610787565b61062781856107b7565b935061063283610762565b8060005b8381101561066357815161064a88826105b5565b97506106558361079d565b925050600181019050610636565b5085935050505092915050565b600061067b82610792565b61068581856107c8565b935061069083610772565b8060005b838110156106c8576106a582610911565b6106af88826105cd565b97506106ba836107aa565b925050600181019050610694565b5085935050505092915050565b6106e66106e182610825565b610849565b82525050565b60006106f882866106d5565b60208201915061070882856106d5565b6020820191506107188284610670565b9150819050949350505050565b600060208201905061073a60008301846105f4565b92915050565b6000602082019050818103600083015261075a8184610612565b905092915050565b6000819050602082019050919050565b60008190508160005260206000209050919050565b600081519050919050565b600081549050919050565b6000602082019050919050565b6000600182019050919050565b600082825260208201905092915050565b600081905092915050565b600073ffffffffffffffffffffffffffffffffffffffff82169050919050565b60006107fe82610805565b9050919050565b600073ffffffffffffffffffffffffffffffffffffffff82169050919050565b6000819050919050565b600061084261083d83610929565b6107d3565b9050919050565b6000819050919050565b600061085e82610825565b915061086983610825565b92508261087957610878610884565b5b828206905092915050565b7f4e487b7100000000000000000000000000000000000000000000000000000000600052601260045260246000fd5b7f4e487b7100000000000000000000000000000000000000000000000000000000600052603260045260246000fd5b7f4e487b7100000000000000000000000000000000000000000000000000000000600052604160045260246000fd5b600061091d825461082f565b9050919050565b600080fd5b60008160001c9050919050565b61093f81610825565b811461094a57600080fd5b5056fea2646970667358221220d2c2d834e4289836431bd29f0a5a88848df51ffe341b6dff64deb67caa40951664736f6c63430008060033",
      "opcodes": "PUSH1 0x80 PUSH1 0x40 MSTORE CALLVALUE DUP1 ISZERO PUSH2 0x10 JUMPI PUSH1 0x0 DUP1 REVERT JUMPDEST POP CALLER PUSH1 0x0 DUP1 PUSH2 0x100 EXP DUP2 SLOAD DUP2 PUSH20 0xFFFFFFFFFFFFFFFFFFFFFFFFFFFFFFFFFFFFFFFF MUL NOT AND SWAP1 DUP4 PUSH20 0xFFFFFFFFFFFFFFFFFFFFFFFFFFFFFFFFFFFFFFFF AND MUL OR SWAP1 SSTORE POP PUSH2 0x983 DUP1 PUSH2 0x60 PUSH1 0x0 CODECOPY PUSH1 0x0 RETURN INVALID PUSH1 0x80 PUSH1 0x40 MSTORE PUSH1 0x4 CALLDATASIZE LT PUSH2 0x55 JUMPI PUSH1 0x0 CALLDATALOAD PUSH1 0xE0 SHR DUP1 PUSH4 0x481C6A75 EQ PUSH2 0x5A JUMPI DUP1 PUSH4 0x5D495AEA EQ PUSH2 0x85 JUMPI DUP1 PUSH4 0x8B5B9CCC EQ PUSH2 0x8F JUMPI DUP1 PUSH4 0xDFBF53AE EQ PUSH2 0xBA JUMPI DUP1 PUSH4 0xE97DCB62 EQ PUSH2 0xE5 JUMPI DUP1 PUSH4 0xF71D96CB EQ PUSH2 0xEF JUMPI JUMPDEST PUSH1 0x0 DUP1 REVERT JUMPDEST CALLVALUE DUP1 ISZERO PUSH2 0x66 JUMPI PUSH1 0x0 DUP1 REVERT JUMPDEST POP PUSH2 0x6F PUSH2 0x12C JUMP JUMPDEST PUSH1 0x40 MLOAD PUSH2 0x7C SWAP2 SWAP1 PUSH2 0x725 JUMP JUMPDEST PUSH1 0x40 MLOAD DUP1 SWAP2 SUB SWAP1 RETURN JUMPDEST PUSH2 0x8D PUSH2 0x150 JUMP JUMPDEST STOP JUMPDEST CALLVALUE DUP1 ISZERO PUSH2 0x9B JUMPI PUSH1 0x0 DUP1 REVERT JUMPDEST POP PUSH2 0xA4 PUSH2 0x32B JUMP JUMPDEST PUSH1 0x40 MLOAD PUSH2 0xB1 SWAP2 SWAP1 PUSH2 0x740 JUMP JUMPDEST PUSH1 0x40 MLOAD DUP1 SWAP2 SUB SWAP1 RETURN JUMPDEST CALLVALUE DUP1 ISZERO PUSH2 0xC6 JUMPI PUSH1 0x0 DUP1 REVERT JUMPDEST POP PUSH2 0xCF PUSH2 0x3B9 JUMP JUMPDEST PUSH1 0x40 MLOAD PUSH2 0xDC SWAP2 SWAP1 PUSH2 0x725 JUMP JUMPDEST PUSH1 0x40 MLOAD DUP1 SWAP2 SUB SWAP1 RETURN JUMPDEST PUSH2 0xED PUSH2 0x3DF JUMP JUMPDEST STOP JUMPDEST CALLVALUE DUP1 ISZERO PUSH2 0xFB JUMPI PUSH1 0x0 DUP1 REVERT JUMPDEST POP PUSH2 0x116 PUSH1 0x4 DUP1 CALLDATASIZE SUB DUP2 ADD SWAP1 PUSH2 0x111 SWAP2 SWAP1 PUSH2 0x588 JUMP JUMPDEST PUSH2 0x457 JUMP JUMPDEST PUSH1 0x40 MLOAD PUSH2 0x123 SWAP2 SWAP1 PUSH2 0x725 JUMP JUMPDEST PUSH1 0x40 MLOAD DUP1 SWAP2 SUB SWAP1 RETURN JUMPDEST PUSH1 0x0 DUP1 SLOAD SWAP1 PUSH2 0x100 EXP SWAP1 DIV PUSH20 0xFFFFFFFFFFFFFFFFFFFFFFFFFFFFFFFFFFFFFFFF AND DUP2 JUMP JUMPDEST PUSH1 0x0 DUP1 SLOAD SWAP1 PUSH2 0x100 EXP SWAP1 DIV PUSH20 0xFFFFFFFFFFFFFFFFFFFFFFFFFFFFFFFFFFFFFFFF AND PUSH20 0xFFFFFFFFFFFFFFFFFFFFFFFFFFFFFFFFFFFFFFFF AND CALLER PUSH20 0xFFFFFFFFFFFFFFFFFFFFFFFFFFFFFFFFFFFFFFFF AND EQ PUSH2 0x1A8 JUMPI PUSH1 0x0 DUP1 REVERT JUMPDEST PUSH1 0x0 PUSH1 0x1 DUP1 SLOAD SWAP1 POP PUSH2 0x1B8 PUSH2 0x496 JUMP JUMPDEST PUSH2 0x1C2 SWAP2 SWAP1 PUSH2 0x853 JUMP JUMPDEST SWAP1 POP PUSH1 0x1 DUP2 DUP2 SLOAD DUP2 LT PUSH2 0x1D8 JUMPI PUSH2 0x1D7 PUSH2 0x8B3 JUMP JUMPDEST JUMPDEST SWAP1 PUSH1 0x0 MSTORE PUSH1 0x20 PUSH1 0x0 KECCAK256 ADD PUSH1 0x0 SWAP1 SLOAD SWAP1 PUSH2 0x100 EXP SWAP1 DIV PUSH20 0xFFFFFFFFFFFFFFFFFFFFFFFFFFFFFFFFFFFFFFFF AND PUSH1 0x2 PUSH1 0x0 PUSH2 0x100 EXP DUP2 SLOAD DUP2 PUSH20 0xFFFFFFFFFFFFFFFFFFFFFFFFFFFFFFFFFFFFFFFF MUL NOT AND SWAP1 DUP4 PUSH20 0xFFFFFFFFFFFFFFFFFFFFFFFFFFFFFFFFFFFFFFFF AND MUL OR SWAP1 SSTORE POP PUSH1 0x1 DUP2 DUP2 SLOAD DUP2 LT PUSH2 0x257 JUMPI PUSH2 0x256 PUSH2 0x8B3 JUMP JUMPDEST JUMPDEST SWAP1 PUSH1 0x0 MSTORE PUSH1 0x20 PUSH1 0x0 KECCAK256 ADD PUSH1 0x0 SWAP1 SLOAD SWAP1 PUSH2 0x100 EXP SWAP1 DIV PUSH20 0xFFFFFFFFFFFFFFFFFFFFFFFFFFFFFFFFFFFFFFFF AND PUSH20 0xFFFFFFFFFFFFFFFFFFFFFFFFFFFFFFFFFFFFFFFF AND PUSH2 0x8FC SELFBALANCE SWAP1 DUP2 ISZERO MUL SWAP1 PUSH1 0x40 MLOAD PUSH1 0x0 PUSH1 0x40 MLOAD DUP1 DUP4 SUB DUP2 DUP6 DUP9 DUP9 CALL SWAP4 POP POP POP POP ISZERO DUP1 ISZERO PUSH2 0x2C7 JUMPI RETURNDATASIZE PUSH1 0x0 DUP1 RETURNDATACOPY RETURNDATASIZE PUSH1 0x0 REVERT JUMPDEST POP PUSH1 0x0 PUSH8 0xFFFFFFFFFFFFFFFF DUP2 GT ISZERO PUSH2 0x2E3 JUMPI PUSH2 0x2E2 PUSH2 0x8E2 JUMP JUMPDEST JUMPDEST PUSH1 0x40 MLOAD SWAP1 DUP1 DUP3 MSTORE DUP1 PUSH1 0x20 MUL PUSH1 0x20 ADD DUP3 ADD PUSH1 0x40 MSTORE DUP1 ISZERO PUSH2 0x311 JUMPI DUP2 PUSH1 0x20 ADD PUSH1 0x20 DUP3 MUL DUP1 CALLDATASIZE DUP4 CALLDATACOPY DUP1 DUP3 ADD SWAP2 POP POP SWAP1 POP JUMPDEST POP PUSH1 0x1 SWAP1 DUP1 MLOAD SWAP1 PUSH1 0x20 ADD SWAP1 PUSH2 0x327 SWAP3 SWAP2 SWAP1 PUSH2 0x4CC JUMP JUMPDEST POP POP JUMP JUMPDEST PUSH1 0x60 PUSH1 0x1 DUP1 SLOAD DUP1 PUSH1 0x20 MUL PUSH1 0x20 ADD PUSH1 0x40 MLOAD SWAP1 DUP2 ADD PUSH1 0x40 MSTORE DUP1 SWAP3 SWAP2 SWAP1 DUP2 DUP2 MSTORE PUSH1 0x20 ADD DUP3 DUP1 SLOAD DUP1 ISZERO PUSH2 0x3AF JUMPI PUSH1 0x20 MUL DUP3 ADD SWAP2 SWAP1 PUSH1 0x0 MSTORE PUSH1 0x20 PUSH1 0x0 KECCAK256 SWAP1 JUMPDEST DUP2 PUSH1 0x0 SWAP1 SLOAD SWAP1 PUSH2 0x100 EXP SWAP1 DIV PUSH20 0xFFFFFFFFFFFFFFFFFFFFFFFFFFFFFFFFFFFFFFFF AND PUSH20 0xFFFFFFFFFFFFFFFFFFFFFFFFFFFFFFFFFFFFFFFF AND DUP2 MSTORE PUSH1 0x20 ADD SWAP1 PUSH1 0x1 ADD SWAP1 DUP1 DUP4 GT PUSH2 0x365 JUMPI JUMPDEST POP POP POP POP POP SWAP1 POP SWAP1 JUMP JUMPDEST PUSH1 0x2 PUSH1 0x0 SWAP1 SLOAD SWAP1 PUSH2 0x100 EXP SWAP1 DIV PUSH20 0xFFFFFFFFFFFFFFFFFFFFFFFFFFFFFFFFFFFFFFFF AND DUP2 JUMP JUMPDEST PUSH7 0x2386F26FC10000 CALLVALUE GT PUSH2 0x3F2 JUMPI PUSH1 0x0 DUP1 REVERT JUMPDEST PUSH1 0x1 CALLER SWAP1 DUP1 PUSH1 0x1 DUP2 SLOAD ADD DUP1 DUP3 SSTORE DUP1 SWAP2 POP POP PUSH1 0x1 SWAP1 SUB SWAP1 PUSH1 0x0 MSTORE PUSH1 0x20 PUSH1 0x0 KECCAK256 ADD PUSH1 0x0 SWAP1 SWAP2 SWAP1 SWAP2 SWAP1 SWAP2 PUSH2 0x100 EXP DUP2 SLOAD DUP2 PUSH20 0xFFFFFFFFFFFFFFFFFFFFFFFFFFFFFFFFFFFFFFFF MUL NOT AND SWAP1 DUP4 PUSH20 0xFFFFFFFFFFFFFFFFFFFFFFFFFFFFFFFFFFFFFFFF AND MUL OR SWAP1 SSTORE POP JUMP JUMPDEST PUSH1 0x1 DUP2 DUP2 SLOAD DUP2 LT PUSH2 0x467 JUMPI PUSH1 0x0 DUP1 REVERT JUMPDEST SWAP1 PUSH1 0x0 MSTORE PUSH1 0x20 PUSH1 0x0 KECCAK256 ADD PUSH1 0x0 SWAP2 POP SLOAD SWAP1 PUSH2 0x100 EXP SWAP1 DIV PUSH20 0xFFFFFFFFFFFFFFFFFFFFFFFFFFFFFFFFFFFFFFFF AND DUP2 JUMP JUMPDEST PUSH1 0x0 DIFFICULTY TIMESTAMP PUSH1 0x1 PUSH1 0x40 MLOAD PUSH1 0x20 ADD PUSH2 0x4AE SWAP4 SWAP3 SWAP2 SWAP1 PUSH2 0x6EC JUMP JUMPDEST PUSH1 0x40 MLOAD PUSH1 0x20 DUP2 DUP4 SUB SUB DUP2 MSTORE SWAP1 PUSH1 0x40 MSTORE DUP1 MLOAD SWAP1 PUSH1 0x20 ADD KECCAK256 PUSH1 0x0 SHR SWAP1 POP SWAP1 JUMP JUMPDEST DUP3 DUP1 SLOAD DUP3 DUP3 SSTORE SWAP1 PUSH1 0x0 MSTORE PUSH1 0x20 PUSH1 0x0 KECCAK256 SWAP1 DUP2 ADD SWAP3 DUP3 ISZERO PUSH2 0x545 JUMPI SWAP2 PUSH1 0x20 MUL DUP3 ADD JUMPDEST DUP3 DUP2 GT ISZERO PUSH2 0x544 JUMPI DUP3 MLOAD DUP3 PUSH1 0x0 PUSH2 0x100 EXP DUP2 SLOAD DUP2 PUSH20 0xFFFFFFFFFFFFFFFFFFFFFFFFFFFFFFFFFFFFFFFF MUL NOT AND SWAP1 DUP4 PUSH20 0xFFFFFFFFFFFFFFFFFFFFFFFFFFFFFFFFFFFFFFFF AND MUL OR SWAP1 SSTORE POP SWAP2 PUSH1 0x20 ADD SWAP2 SWAP1 PUSH1 0x1 ADD SWAP1 PUSH2 0x4EC JUMP JUMPDEST JUMPDEST POP SWAP1 POP PUSH2 0x552 SWAP2 SWAP1 PUSH2 0x556 JUMP JUMPDEST POP SWAP1 JUMP JUMPDEST JUMPDEST DUP1 DUP3 GT ISZERO PUSH2 0x56F JUMPI PUSH1 0x0 DUP2 PUSH1 0x0 SWAP1 SSTORE POP PUSH1 0x1 ADD PUSH2 0x557 JUMP JUMPDEST POP SWAP1 JUMP JUMPDEST PUSH1 0x0 DUP2 CALLDATALOAD SWAP1 POP PUSH2 0x582 DUP2 PUSH2 0x936 JUMP JUMPDEST SWAP3 SWAP2 POP POP JUMP JUMPDEST PUSH1 0x0 PUSH1 0x20 DUP3 DUP5 SUB SLT ISZERO PUSH2 0x59E JUMPI PUSH2 0x59D PUSH2 0x924 JUMP JUMPDEST JUMPDEST PUSH1 0x0 PUSH2 0x5AC DUP5 DUP3 DUP6 ADD PUSH2 0x573 JUMP JUMPDEST SWAP2 POP POP SWAP3 SWAP2 POP POP JUMP JUMPDEST PUSH1 0x0 PUSH2 0x5C1 DUP4 DUP4 PUSH2 0x5E5 JUMP JUMPDEST PUSH1 0x20 DUP4 ADD SWAP1 POP SWAP3 SWAP2 POP POP JUMP JUMPDEST PUSH1 0x0 PUSH2 0x5D9 DUP4 DUP4 PUSH2 0x603 JUMP JUMPDEST PUSH1 0x20 DUP4 ADD SWAP1 POP SWAP3 SWAP2 POP POP JUMP JUMPDEST PUSH2 0x5EE DUP2 PUSH2 0x7F3 JUMP JUMPDEST DUP3 MSTORE POP POP JUMP JUMPDEST PUSH2 0x5FD DUP2 PUSH2 0x7F3 JUMP JUMPDEST DUP3 MSTORE POP POP JUMP JUMPDEST PUSH2 0x60C DUP2 PUSH2 0x7F3 JUMP JUMPDEST DUP3 MSTORE POP POP JUMP JUMPDEST PUSH1 0x0 PUSH2 0x61D DUP3 PUSH2 0x787 JUMP JUMPDEST PUSH2 0x627 DUP2 DUP6 PUSH2 0x7B7 JUMP JUMPDEST SWAP4 POP PUSH2 0x632 DUP4 PUSH2 0x762 JUMP JUMPDEST DUP1 PUSH1 0x0 JUMPDEST DUP4 DUP2 LT ISZERO PUSH2 0x663 JUMPI DUP2 MLOAD PUSH2 0x64A DUP9 DUP3 PUSH2 0x5B5 JUMP JUMPDEST SWAP8 POP PUSH2 0x655 DUP4 PUSH2 0x79D JUMP JUMPDEST SWAP3 POP POP PUSH1 0x1 DUP2 ADD SWAP1 POP PUSH2 0x636 JUMP JUMPDEST POP DUP6 SWAP4 POP POP POP POP SWAP3 SWAP2 POP POP JUMP JUMPDEST PUSH1 0x0 PUSH2 0x67B DUP3 PUSH2 0x792 JUMP JUMPDEST PUSH2 0x685 DUP2 DUP6 PUSH2 0x7C8 JUMP JUMPDEST SWAP4 POP PUSH2 0x690 DUP4 PUSH2 0x772 JUMP JUMPDEST DUP1 PUSH1 0x0 JUMPDEST DUP4 DUP2 LT ISZERO PUSH2 0x6C8 JUMPI PUSH2 0x6A5 DUP3 PUSH2 0x911 JUMP JUMPDEST PUSH2 0x6AF DUP9 DUP3 PUSH2 0x5CD JUMP JUMPDEST SWAP8 POP PUSH2 0x6BA DUP4 PUSH2 0x7AA JUMP JUMPDEST SWAP3 POP POP PUSH1 0x1 DUP2 ADD SWAP1 POP PUSH2 0x694 JUMP JUMPDEST POP DUP6 SWAP4 POP POP POP POP SWAP3 SWAP2 POP POP JUMP JUMPDEST PUSH2 0x6E6 PUSH2 0x6E1 DUP3 PUSH2 0x825 JUMP JUMPDEST PUSH2 0x849 JUMP JUMPDEST DUP3 MSTORE POP POP JUMP JUMPDEST PUSH1 0x0 PUSH2 0x6F8 DUP3 DUP7 PUSH2 0x6D5 JUMP JUMPDEST PUSH1 0x20 DUP3 ADD SWAP2 POP PUSH2 0x708 DUP3 DUP6 PUSH2 0x6D5 JUMP JUMPDEST PUSH1 0x20 DUP3 ADD SWAP2 POP PUSH2 0x718 DUP3 DUP5 PUSH2 0x670 JUMP JUMPDEST SWAP2 POP DUP2 SWAP1 POP SWAP5 SWAP4 POP POP POP POP JUMP JUMPDEST PUSH1 0x0 PUSH1 0x20 DUP3 ADD SWAP1 POP PUSH2 0x73A PUSH1 0x0 DUP4 ADD DUP5 PUSH2 0x5F4 JUMP JUMPDEST SWAP3 SWAP2 POP POP JUMP JUMPDEST PUSH1 0x0 PUSH1 0x20 DUP3 ADD SWAP1 POP DUP2 DUP2 SUB PUSH1 0x0 DUP4 ADD MSTORE PUSH2 0x75A DUP2 DUP5 PUSH2 0x612 JUMP JUMPDEST SWAP1 POP SWAP3 SWAP2 POP POP JUMP JUMPDEST PUSH1 0x0 DUP2 SWAP1 POP PUSH1 0x20 DUP3 ADD SWAP1 POP SWAP2 SWAP1 POP JUMP JUMPDEST PUSH1 0x0 DUP2 SWAP1 POP DUP2 PUSH1 0x0 MSTORE PUSH1 0x20 PUSH1 0x0 KECCAK256 SWAP1 POP SWAP2 SWAP1 POP JUMP JUMPDEST PUSH1 0x0 DUP2 MLOAD SWAP1 POP SWAP2 SWAP1 POP JUMP JUMPDEST PUSH1 0x0 DUP2 SLOAD SWAP1 POP SWAP2 SWAP1 POP JUMP JUMPDEST PUSH1 0x0 PUSH1 0x20 DUP3 ADD SWAP1 POP SWAP2 SWAP1 POP JUMP JUMPDEST PUSH1 0x0 PUSH1 0x1 DUP3 ADD SWAP1 POP SWAP2 SWAP1 POP JUMP JUMPDEST PUSH1 0x0 DUP3 DUP3 MSTORE PUSH1 0x20 DUP3 ADD SWAP1 POP SWAP3 SWAP2 POP POP JUMP JUMPDEST PUSH1 0x0 DUP2 SWAP1 POP SWAP3 SWAP2 POP POP JUMP JUMPDEST PUSH1 0x0 PUSH20 0xFFFFFFFFFFFFFFFFFFFFFFFFFFFFFFFFFFFFFFFF DUP3 AND SWAP1 POP SWAP2 SWAP1 POP JUMP JUMPDEST PUSH1 0x0 PUSH2 0x7FE DUP3 PUSH2 0x805 JUMP JUMPDEST SWAP1 POP SWAP2 SWAP1 POP JUMP JUMPDEST PUSH1 0x0 PUSH20 0xFFFFFFFFFFFFFFFFFFFFFFFFFFFFFFFFFFFFFFFF DUP3 AND SWAP1 POP SWAP2 SWAP1 POP JUMP JUMPDEST PUSH1 0x0 DUP2 SWAP1 POP SWAP2 SWAP1 POP JUMP JUMPDEST PUSH1 0x0 PUSH2 0x842 PUSH2 0x83D DUP4 PUSH2 0x929 JUMP JUMPDEST PUSH2 0x7D3 JUMP JUMPDEST SWAP1 POP SWAP2 SWAP1 POP JUMP JUMPDEST PUSH1 0x0 DUP2 SWAP1 POP SWAP2 SWAP1 POP JUMP JUMPDEST PUSH1 0x0 PUSH2 0x85E DUP3 PUSH2 0x825 JUMP JUMPDEST SWAP2 POP PUSH2 0x869 DUP4 PUSH2 0x825 JUMP JUMPDEST SWAP3 POP DUP3 PUSH2 0x879 JUMPI PUSH2 0x878 PUSH2 0x884 JUMP JUMPDEST JUMPDEST DUP3 DUP3 MOD SWAP1 POP SWAP3 SWAP2 POP POP JUMP JUMPDEST PUSH32 0x4E487B7100000000000000000000000000000000000000000000000000000000 PUSH1 0x0 MSTORE PUSH1 0x12 PUSH1 0x4 MSTORE PUSH1 0x24 PUSH1 0x0 REVERT JUMPDEST PUSH32 0x4E487B7100000000000000000000000000000000000000000000000000000000 PUSH1 0x0 MSTORE PUSH1 0x32 PUSH1 0x4 MSTORE PUSH1 0x24 PUSH1 0x0 REVERT JUMPDEST PUSH32 0x4E487B7100000000000000000000000000000000000000000000000000000000 PUSH1 0x0 MSTORE PUSH1 0x41 PUSH1 0x4 MSTORE PUSH1 0x24 PUSH1 0x0 REVERT JUMPDEST PUSH1 0x0 PUSH2 0x91D DUP3 SLOAD PUSH2 0x82F JUMP JUMPDEST SWAP1 POP SWAP2 SWAP1 POP JUMP JUMPDEST PUSH1 0x0 DUP1 REVERT JUMPDEST PUSH1 0x0 DUP2 PUSH1 0x0 SHR SWAP1 POP SWAP2 SWAP1 POP JUMP JUMPDEST PUSH2 0x93F DUP2 PUSH2 0x825 JUMP JUMPDEST DUP2 EQ PUSH2 0x94A JUMPI PUSH1 0x0 DUP1 REVERT JUMPDEST POP JUMP INVALID LOG2 PUSH5 0x6970667358 0x22 SLT KECCAK256 0xD2 0xC2 0xD8 CALLVALUE 0xE4 0x28 SWAP9 CALLDATASIZE NUMBER SHL 0xD2 SWAP16 EXP GAS DUP9 DUP5 DUP14 CREATE2 0x1F INVALID CALLVALUE SHL PUSH14 0xFF64DEB67CAA40951664736F6C63 NUMBER STOP ADDMOD MOD STOP CALLER "
    },
    "gasEstimates": {
      "creation": {
        "codeDepositCost": "487000",
        "executionCost": "24790",
        "totalCost": "511790"
      },
      "external": {
        "enter()": "48786",
        "getPlayers()": "infinite",
        "manager()": "2489",
        "pickWinner()": "infinite",
        "players(uint256)": "5044",
        "winner()": "2558"
      },
      "internal": {
        "random()": "infinite"
      }
    },
    "methodIdentifiers": {
      "enter()": "e97dcb62",
      "getPlayers()": "8b5b9ccc",
      "manager()": "481c6a75",
      "pickWinner()": "5d495aea",
      "players(uint256)": "f71d96cb",
      "winner()": "dfbf53ae"
    }
  },
  "storageLayout": {
    "storage": [
      {
        "astId": 3,
        "contract": "Lottery.sol:Lottery",
        "label": "manager",
        "offset": 0,
        "slot": "0",
        "type": "t_address"
      },
      {
        "astId": 6,
        "contract": "Lottery.sol:Lottery",
        "label": "players",
        "offset": 0,
        "slot": "1",
        "type": "t_array(t_address)dyn_storage"
      },
      {
        "astId": 8,
        "contract": "Lottery.sol:Lottery",
        "label": "winner",
        "offset": 0,
        "slot": "2",
        "type": "t_address"
      }
    ],
    "types": {
      "t_address": {
        "encoding": "inplace",
        "label": "address",
        "numberOfBytes": "20"
      },
      "t_array(t_address)dyn_storage": {
        "base": "t_address",
        "encoding": "dynamic_array",
        "label": "address[]",
        "numberOfBytes": "32"
      }
    }
  },
  "userdoc": {
    "kind": "user",
    "methods": {},
    "version": 1
  }
}